:100000000C9403170C942D170C942D170C942D178A
:100010000C942D170C942D170C942D170C942D1750
:100020000C942D170C94C4C00C942D170C942D1700
:100030000C942D170C94746B0C942D170C942D1795
:100040000C942D170C94A7650C9476C30C942D1763
:100050000C94E0430C94D6430C942D170C942D175C
:100060000C942D170C942D170C942D170C942D1700
:100070000C942D170C942D170C942D170C942D17F0
:100080000C942D170C942D170C942D174E414E499E
:100090004E495459494E46CDCCCC3D0AD7233C1746
:1000A000B7D13877CC2B329595E6241FB14F0A0093
:1000B0000020410000C84200401C4620BCBE4CCA83
:1000C0001B0E5AAEC59D7400407A10F35A00A07200
:1000D0004E18090010A5D4E80000E8764817000083
:1000E000E40B54020000CA9A3B000000E1F5050051
:1000F0000080969800000040420F000000A086019A
:10010000000000102700000000E803000000006469
:1001100000000000000A00000000000100000000D4
:10012000002C76D888DC674F0823DFC1DFAE59E1A9
:10013000B1B796E5E3E453C63AE651997696E8E618
:10014000C28426EB898C9B62ED407C6FFCEFBC9CEB
:100150009F40F2BAA56FA5F490055A2AF75C936BFD
:100160006CF9676DC11BFCE0E40D47FEF520E6B5B8
:1001700000D0ED902E0300943577050080841E0892
:100180000000204E0A000000C80C333333330F98B0
:100190006E12831141EF8D2114893BE65516CFFE77
:1001A000E6DB18D1844B381BF77C1D901DA4BBE403
:1001B00024203284725E228100C9F124ECA1E53D45
:1001C00027434F4D4D554E49434154494F4E0044EE
:1001D000525952554E004552524F525300494E46C5
:1001E0004F004543484F004572726F722077726925
:1001F00074696E6720746F20454550524F4D210A37
:10020000000F150E1216170E1303021A1401000E1A
:100210000C190DFF180C040001627573793A2070F7
:10022000617573656420666F7220696E7075740AFB
:1002300000627573793A2070617573656420666F2A
:100240007220757365720A00627573793A20707254
:100250006F63657373696E670A002121204B494CF7
:100260004C2063617573656420627920746F6F2020
:100270006D75636820696E61637469766520746961
:100280006D65202D2063757272656E7420636F6DCD
:100290006D616E643A200053544F505045442E20F7
:1002A000005072696E7465722073746F707065644B
:1002B0002064756520746F206572726F72732E20D2
:1002C00046697820746865206572726F7220616E6D
:1002D0006420757365204D39393920746F2072653B
:1002E00073746172742E202854656D706572617428
:1002F0007572652069732072657365742E2053656D
:10030000742069742061667465722072657374610B
:100310007274696E67290A004E6F20436865636BCB
:1003200073756D2077697468206C696E65206E75D1
:100330006D6265722C204C617374204C696E653A55
:1003400020004E6F20436865636B73756D2077697D
:100350007468206C696E65206E756D6265722C2004
:100360004C617374204C696E653A20006368656364
:100370006B73756D206D69736D617463682C204CAF
:10038000617374204C696E653A20004C696E65207B
:100390004E756D626572206973206E6F74204C61BA
:1003A0007374204C696E65204E756D6265722B31D9
:1003B0002C204C617374204C696E653A20004D31DD
:1003C00031300053442072656164206572726F722F
:1003D0000A00506C65617365205265736574005046
:1003E00052494E5445522048414C544544002553EF
:1003F0003A20255300706F7765726F6666004B492F
:100400004C4C45442E20005072696E746572206811
:10041000616C7465642E206B696C6C2829206361A3
:100420006C6C6564210A006563686F3A00457272FE
:100430006F723A0020496E76616C69642065787449
:100440007275646572200020746F6F206C6F6E6728
:1004500020657874727573696F6E20707265766549
:100460006E7465640A0020636F6C64206578747232
:100470007573696F6E2070726576656E7465640A57
:1004800000536C6565702E2E2E00436C69636B20E3
:10049000746F20526573756D652E2E2E004E6F2081
:1004A0004D6F76652E00456E642066696C65206C24
:1004B0006973740A00426567696E2066696C65201D
:1004C0006C6973740A00706175736500286E6F2023
:1004D00066696C65290043757272656E7420666981
:1004E0006C653A20005344207072696E74696E67BF
:1004F000206279746520004E6F742053442070721E
:10050000696E74696E670A002E0A0044656C657432
:10051000696F6E206661696C65642C2046696C6544
:100520003A200046696C652064656C657465643AC0
:10053000002569730025696D2025697300256968A8
:100540002025696D20256973002569642025696867
:100550002025696D20256973002569792025696446
:10056000202569682025696D20256973005072690E
:100570006E742074696D653A2000496E76616C690D
:10058000642050696E204D6F64650A0020573A0060
:10059000436F6F6C696E672E2E2E0048656174691B
:1005A0006E672E2E2E0045202553006F6B006F6660
:1005B0006600E201DD01D601CF01C101444542558B
:1005C000473A004D3131322053687574646F776E4D
:1005D000004D31313320530020573A0042656420EA
:1005E000436F6F6C696E672E2E2E00426564204843
:1005F000656174696E672E2E2E00456E6465722DDE
:1006000033204F46462E004348414D4245525F54E9
:10061000454D5045524154555245004D4F54494F58
:100620004E5F4D4F44455300544845524D414C5F39
:1006300050524F54454354494F4E004155544F5228
:1006400045504F52545F53445F53544154555300E7
:1006500050524F4D50545F535550504F52540045D7
:100660004D455247454E43595F5041525345520004
:10067000434153455F4C494748545F4252494748BC
:10068000544E45535300544F47474C455F4C4947E0
:1006900048545300534F4654574152455F504F57AB
:1006A0004552004255494C445F50455243454E54D3
:1006B000004C4556454C494E475F44415441005A11
:1006C0005F50524F4245004155544F4C4556454CA2
:1006D000005052494E545F4A4F420050524F4752C9
:1006E000455353004155544F5245504F52545F5457
:1006F000454D5000564F4C554D45545249430045C9
:100700004550524F4D0042494E4152595F46494C67
:10071000455F5452414E534645520053455249415C
:100720004C5F584F4E5F584F4646004649524D5712
:100730004152455F4E414D453A4D61726C696E20A4
:10074000322E302E352E33202847697448756229A1
:1007500020534F555243455F434F44455F55524CDC
:100760003A68747470733A2F2F6769746875622ED3
:10077000636F6D2F4D61726C696E4669726D776142
:1007800072652F4D61726C696E2050524F544F4309
:100790004F4C5F56455253494F4E3A312E30204D03
:1007A000414348494E455F545950453A456E64654A
:1007B000722D332045585452554445525F434F558E
:1007C0004E543A3120555549443A63656465326167
:1007D00032662D343161322D343734382D3962315F
:1007E000322D6335356336326633363766660A0036
:1007F0002F2F20004D31343520533C696E646578CD
:100800003E206F7574206F662072616E67652028C8
:10081000302D31290A00205200416363656C6572F6
:100820006174696F6E3A2050003F4A206F757420E2
:100830006F662072616E67652028302E303120741B
:100840006F20302E33290A004F4646004F4E0020BD
:10085000580020204D61783A2000200020204D696A
:100860006E3A2000536F667420656E6473746F7007
:10087000733A200046523A0020466C6F773A2000C7
:1008800050726F7465637465642050696E0A00204D
:10089000643A0020693A0020703A00496E76616C33
:1008A00069642065787472756465720A006469739E
:1008B00000656E0043290A0061626C656420286D42
:1008C000696E2074656D702000436F6C64206578DC
:1008D000747275646573206172652000486F6D6580
:1008E00020257325732573204669727374004F6643
:1008F0006673657473204170706C6965640045723D
:10090000723A20546F6F206661722100546F6F201D
:100910006661722066726F6D207265666572656EC3
:10092000636520706F696E740A00454550524F4DE3
:10093000204F4B0A00446F6E65207072696E7469B7
:100940006E672066696C650A004D3737004D33319C
:1009500000496E76616C69642065787472756465AF
:10096000720A004361703A00220A00656E71756573
:100970007565696E672022006F6B00526573656E46
:10098000643A200023646566696E652044454641EB
:10099000554C545F004B6420004B6920004B702085
:1009A00000504944204175746F74756E6520666906
:1009B0006E697368656421205075742074686520C1
:1009C0006C617374204B702C204B6920616E642025
:1009D0004B6420636F6E7374616E74732066726F04
:1009E0006D2062656C6F7720696E746F20436F6E47
:1009F00066696775726174696F6E2E680A00504986
:100A000044204175746F74756E65206661696C650C
:100A100064212074696D656F75740A005049442023
:100A20004175746F74756E65206661696C656421CB
:100A30002054656D706572617475726520746F6F96
:100A400020686967680A00204B643A2000204B69DF
:100A50003A2000204B703A20000A20436C617373E7
:100A6000696320504944200A002054753A20002030
:100A70004B753A2000206D61783A2000206D696E38
:100A80003A200020643A200020626961733A200015
:100A9000504944204175746F74756E65207374619C
:100AA00072740A00504944204175746F74756E6504
:100AB000206661696C6564212054656D70657261A2
:100AC0007475726520746F6F20686967680A0050DA
:100AD0004944204175746F74756E65206661696C58
:100AE0006564212042616420657874727564657262
:100AF000206E756D6265720A004572723A207574D7
:100B0000663820666F6E74206E6F7420696E69742B
:100B100069616C697A65642E004572723A20757459
:100B2000663820666F6E74206E6F7420696E69740B
:100B300069616C697A65642E004572723A20757439
:100B4000663820666F6E74206E6F7420696E6974EB
:100B500069616C697A65642E0046696C2E2044696F
:100B6000612E004520696E206D6DC2B3004D33309B
:100B700033205531204525692053256900504944CB
:100B8000204175746F74756E65202A005049442D9C
:100B900044202A005049442D49202A005049442D20
:100BA00050202A0020082046616374002008204D50
:100BB0006178002008204D696E004F6666004F6E18
:100BC000004175746F74656D7000565472617620C3
:100BD0004D696E00566D696E00566D617820450056
:100BE000566D6178205A00566D6178205900566D17
:100BF0006178205800416D6178204500416D617831
:100C0000205A00416D6178205900416D617820586B
:100C100000412D54726176656C00412D52657472ED
:100C200061637400416363656C004A756E63746947
:100C30006F6E20446576004573746570732F6D6D1B
:100C4000005A73746570732F6D6D005973746570FD
:100C5000732F6D6D005873746570732F6D6D004147
:100C60006476616E6365642053657474696E67733E
:100C7000003F0043616E63656C00496E6974004D0E
:100C800034323800496E697469616C697A6520454F
:100C90004550524F4D0046696C616D656E7400544D
:100CA000656D7065726174757265005374657073FB
:100CB0002F6D6D004A65726B00416363656C6572F0
:100CC0006174696F6E0056656C6F63697479005367
:100CD000657420486F6D65204F6666736574730098
:100CE000436F6E66696775726174696F6E00000CA0
:100CF0000D00FE07022603BC017FFE08FE08FE056C
:100D0000080806000040F0C8888898781005080890
:100D1000060000C0F88888888888F8050505060060
:100D2000012030F830200508080600002070F82067
:100D3000202020E00509090600FF2070A8A8B88837
:100D4000887020050606060001E08CEA8C8A0A05F8
:100D500009090600FFF8A88888888888A8F8050A85
:100D60000A0600FE205050505088A8A8887003033F
:100D70000306000340A040FFFFFFFFFFFFFFFFFF50
:100D8000FFFFFFFFFFFFFFFFFFFFFFFFFF00000070
:100D90000605FF0107070602008080808080008032
:100DA000030303060105A0A0A005060606000050E7
:100DB000F85050F8500509090600FF2070A8A070EF
:100DC00028A87020050707060000C8C81020409812
:100DD0009805070706000040A0A040A890680103FE
:100DE000030602058080800309090601FF204040B8
:100DF0008080804040200309090601FF8040402098
:100E0000202040408005070706000020A8702070C1
:100E1000A8200505050600012020F8202002030374
:100E20000601FFC04080050101060003F80202022E
:100E3000060100C0C005070706000008101020408A
:100E40004080050707060000708898A8C8887003CE
:100E5000070706010040C040404040E00507070684
:100E60000000708808102040F8050707060000F809
:100E700008103008887005070706000010305090F1
:100E8000F81010050707060000F880F008088870C1
:100E9000050707060000304080F0888870050707C6
:100EA000060000F8081010202020050707060000A3
:100EB0007088887088887005070706000070888829
:100EC00078081060020505060100C0C000C0C0021D
:100ED00006060601FFC0C000C040800305050601EC
:100EE000012040804020050303060002F800F803BB
:100EF0000505060101804020408005070706000027
:100F0000708810202000200507070600007088B8B0
:100F1000A8B88070050707060000708888F88888E0
:100F200088050707060000F04848704848F00507A4
:100F3000070600007088808080887005070706001B
:100F400000F04848484848F0050707060000F880C8
:100F500080F08080F8050707060000F88080F080A8
:100F600080800507070600007088808098887005DB
:100F70000707060000888888F8888888030707061E
:100F80000100E04040404040E0050707060000380F
:100F90001010101090600507070600008890A0C090
:100FA000A09088050707060000808080808080F878
:100FB00005070706000088D8A888888888050707DD
:100FC0000600008888C8A8988888050707060000DA
:100FD00070888888888870050707060000F0888870
:100FE000F080808005070706000070888888A89038
:100FF00068050707060000F08888F0A090880507BC
:1010000007060000708880700888700507070600D2
:1010100000F82020202020200507070600008888EF
:1010200088888888700507070600008888888850A7
:10103000502005070706000088888888A8A8500562
:101040000707060000888850205088880507070693
:10105000000088885020202020050707060000F89F
:101060000810204080F80309090601FFE080808015
:1010700080808080E0050707060000804040201047
:1010800010080309090601FFE0202020202020206D
:10109000E00503030600052050880501010600FE57
:1010A000F80303030601058040200505050600003E
:1010B00070087888780507070600008080F0888827
:1010C00088F0050505060000708080887005070718
:1010D000060000080878888888780505050600005D
:1010E0007088F08070050707060000304840E04037
:1010F00040400507070600FE70888888780870055C
:1011000007070600008080F08888888803070706A4
:1011100001004000C0404040E00409090601FE1003
:101120000030101010109060050707060000808046
:101130008890E09088030707060100C040404040C7
:1011400040E0050505060000D0A8A8A8A8050505EB
:10115000060000B0C888888805050506000070886C
:101160008888700507070600FEF0888888F0808070
:101170000507070600FE78888888780808050505B1
:10118000060000B0C8808080050505060000788054
:101190007008F00507070600002020F8202020181E
:1011A000050505060000888888986805050506007D
:1011B0000088888850200505050600008888A8A8B2
:1011C00050050505060000885020508805070706D1
:1011D00000FE88888850204080050505060000F83C
:1011E000102040F80309090601FF204040408040DC
:1011F0004040200109090602FF80808080808080B5
:1012000080800309090601FF8040404020404040A3
:101210008005030306000248A890FF3F004E657852
:101220007420506F696E7400446F6E65004E65786F
:101230007400486F6D696E672058595A00426564A2
:10124000004E6F7A7A6C650046616E20537065655A
:101250006400436F6E66696775726174696F6E00D2
:10126000526573746F72652044656661756C747342
:10127000004C6F61642053657474696E677300532A
:10128000746F72652053657474696E677300507271
:1012900065686561742041425320436F6E6600505B
:1012A00072656865617420504C4120436F6E660022
:1012B000416476616E6365642053657474696E671A
:1012C00073004D61696E00313235003A20003500FF
:1012D0003A20004245443A4550434F532031303084
:1012E0004B0052756E617761792057617463683A7B
:1012F000204F4E004D61782054656D7000323735B7
:10130000003A20004D696E2054656D700035003A3A
:10131000200045313A204550434F53203130304B67
:10132000005053550047656E65726963003A2000AE
:1013300050726F746F636F6C00312E30003A200072
:101340004261756400313135323030003A20004D51
:10135000656C7A692028437265616C69747929002B
:101360004578747275646572730031003A200068C4
:101370007474703A2F2F6D61726C696E66772E6F80
:10138000726700456E6465722D3300323032302D45
:1013900030332D333100322E302E352E33004D6157
:1013A000726C696E00546865726D6973746F7273E4
:1013B00000426F61726420496E666F005072696E00
:1013C00074657220496E666F004D61696E003F0062
:1013D0004261636B0053746F70004D323100417491
:1013E00074616368204D65646961005072696E7450
:1013F0002066726F6D204D65646961004D32320068
:1014000052656C65617365204D6564696100416278
:101410006F7574205072696E74657200436F6E66EA
:10142000696775726174696F6E0054656D7065727D
:101430006174757265004D6F74696F6E00526573EB
:10144000756D65205072696E74004D656469612028
:1014500052656C65617365640054756E6500537404
:101460006F70205072696E74005061757365205002
:1014700072696E7400496E666F2053637265656EA3
:10148000003F005374617274205072696E7400439F
:10149000616E63656C005072696E740043616E6EBC
:1014A0006F7420656E746572207375626469723A38
:1014B0002000022E2E000152656672657368004D91
:1014C00061696E004D6F74696F6E004D3834004471
:1014D000697361626C652053746570706572730026
:1014E0004C6576656C20436F726E6572730047328F
:1014F00038004175746F20486F6D65004D61696EED
:10150000005072656865617420504C4120456E64DE
:10151000005072656865617420504C4120426564DA
:1015200000507265686561742041425320456E64C5
:1015300000507265686561742041425320426564C1
:101540000054656D706572617475726500436F6FEC
:101550006C646F776E0050726568656174204142FB
:1015600053005072656865617420504C41004661BB
:101570006E20537065656400426564004E6F7A7A30
:101580006C65004D61696E004261627973746570CB
:10159000205A00466C6F770046616E205370656577
:1015A0006400426564004E6F7A7A6C650053706522
:1015B0006564004D61696E002568753A25303268B2
:1015C000750025303268753A253032687500256817
:1015D00075642025303268753A25303268750020F0
:1015E0002020202020200020202020001FE03FF08D
:1015F0003FF03FF01FE01FE03FF03FF03FF00FC033
:10160000078003001FE02010201020101020102061
:101610002010201030300840048003003FFFF038D5
:10162000007030FC3020FC102078102030102C008E
:10163000D02E31D02F7BD02F7BD02E31D02C00D08C
:1016400020301020781020FC1030FC303800703F23
:10165000FFF03FFFF0380070318630238710278776
:10166000902F87D02F03D0203010207810207810B2
:101670002030102F03D02F87D02787902387103159
:1016800086303800703FFFF01FFFF81FFFF804108E
:101690004002082002082004104008208010410069
:1016A0001041000820800410400000001FFFF81FB8
:1016B000FFF8F80180000C480080001243C38CD072
:1016C0000271249267CC41249E400249249040122A
:1016D000FBB3CEE00C4D6564696120496E736572A1
:1016E0007465640063616E63656C005072696E744A
:1016F0002041626F72746564004D3235005061752F
:101700007365205072696E7400726573756D650043
:1017100000006B4300006B4300007A4300000000B0
:101720000000000000000000290A002062797465B2
:10173000733B20637263200053657474696E677332
:101740002053746F726564202800454550524F4DF8
:10175000206461746173697A65206572726F722E9C
:101760000A00290A002062797465733B2063726362
:1017700020002073746F7265642073657474696EE1
:101780006773207265747269657665642028004508
:1017900072723A20454550524F4D2043524300202B
:1017A0002863616C63756C6174656429210A00208B
:1017B000213D2000454550524F4D20435243206D5E
:1017C00069736D61746368202D202873746F72656E
:1017D000642920004572723A20454550524F4D20F1
:1017E000496E646578002053697A653A2000496E35
:1017F0006465783A20004572723A20454550524F50
:101800004D2056657273696F6E00204D61726C6970
:101810006E3D563736290A00454550524F4D2076C9
:10182000657273696F6E206D69736D617463682092
:1018300028454550524F4D3D0048617264636F64C6
:1018400065642044656661756C74205365747469C1
:101850006E6773204C6F616465640A000000FA4390
:101860000000FA430000A0400000C8410000A04270
:101870000000A0420000C8430000BA42F40100008A
:10188000F401000064000000881300003B200020E9
:10189000440020490020204D333031205000504971
:1018A000442073657474696E67733A0020460020A3
:1018B000420020480020204D3134352053004D6136
:1018C00074657269616C20686561747570207061FF
:1018D00072616D65746572733A0020204D32303646
:1018E000205800486F6D65206F66667365743A0016
:1018F000204A0020530020204D3230352042004144
:101900006476616E6365643A20423C6D696E5F7314
:1019100065676D656E745F74696D655F75733E2094
:10192000533C6D696E5F66656564726174653E20E7
:10193000543C6D696E5F74726176656C5F66656557
:1019400064726174653E204A3C6A756E635F6465CB
:10195000763E0020540020520020204D32303420AA
:101960005000416363656C65726174696F6E202815
:10197000756E6974732F7332293A20503C70726906
:101980006E745F616363656C3E20523C7265747275
:101990006163745F616363656C3E20543C74726183
:1019A00076656C5F616363656C3E0020204D32306C
:1019B000312058004D6178696D756D204163636514
:1019C0006C65726174696F6E2028756E6974732F0F
:1019D0007332293A0020204D3230332058004D61B7
:1019E00078696D756D2066656564726174657320D4
:1019F00028756E6974732F73293A00537465707378
:101A00002070657220756E69743A0020204D323066
:101A1000302044300A0020204D3230302044002055
:101A200044697361626C65640A0046696C616D6546
:101A30006E742073657474696E67733A0020204D6C
:101A40003134392043203B20556E69747320696E10
:101A50002043656C736975730A0020286D6D290039
:101A60002020473231202020203B20556E6974739E
:101A700020696E206D6D00486F6D696E672046614C
:101A8000696C6564006F70656E0054524947474544
:101A9000524544003A20007A5F6D696E00795F6DAF
:101AA000696E00785F6D696E005265706F7274695F
:101AB0006E6720656E6473746F70207374617475E3
:101AC000730A000000000000000000000000000099
:101AD00000A0410000A041000080405761726E6983
:101AE0006E673A20486F6D696E672042756D702091
:101AF00044697669736F72203C20310A0002020447
:101B00000000A0400000A0400000004000006B4327
:101B100000006B4300007A43FFFFFF24F4D43050F1
:101B2000C38E20C2A24017828B7011127A910D8150
:101B30006CD90AA861E108C7586607615143061EBF
:101B40004B5D05C145A7041A411104093D98037175
:101B50003931034036DB0265339102D430540280C0
:101B60002E1D02632CEE01752AC501B028A00110BC
:101B70002781018F2564012B244B01E0223401AC25
:101B8000211F018D200D01801FFC00841EED009798
:101B90001DDF00B81CD200E61BC600201BBC006481
:101BA0001AB200B219A8000A19A0006A189900D147
:101BB00017910040178B00B516840031167E00B3D4
:101BC0001579003A157300C7146F0058146A00EEB7
:101BD0001366008813630025135E00C7125B006C58
:101BE00012570015125400C111510070114F0021FD
:101BF000114B00D61049008D1047004610440002DA
:101C0000104200C00F4000800F3E00420F3C000613
:101C10000F3B00CB0E3800930E37005C0E350027CB
:101C20000E3400F30D3200C10D3100900D30006014
:101C30000D2E00320D2D00050D2C00D90C2B00AE01
:101C40000C2900850C29005C0C2700350C27000EA0
:101C50000C2600E80B2400C40B2400A00B23007DFD
:101C60000B23005A0B2100390B2100180B2000F820
:101C70000A1F00D90A1E00BB0A1E009D0A1D008013
:101C80000A1D00630A1C00470A1B002C0A1B0011D6
:101C90000A1A00F7091A00DD091900C4091900AB76
:101CA000091900920917007B091800630917004CF5
:101CB00009160036091600200916000A091500F554
:101CC000081500E0081400CC081400B8081400A49B
:101CD000081400900813007D0812006B08130058C8
:101CE00008120046081200340811002308110012DF
:101CF00008110001081100F0071000E0071000D0E3
:101D0000071000C0071000B0070F00A107100091D6
:101D1000070E0083070F0074070F0065070E0057BA
:101D2000070E0049070E003B070D002E070E00208E
:101D3000070D0013070D0006070D00F9060C00ED56
:101D4000060D00E0060C00D4060C00C8060C00BC12
:101D5000060C00B0060C00A4060B0099060C008DC2
:101D6000060B0082060B0077060B006C060B006169
:101D7000060A0057060B004C060A0042060A003805
:101D8000060A002E060A0024060A001A060A001097
:101D900006090007060A00FD050900F4050900EB25
:101DA000050900E2050900D9050900D0050900C7A9
:101DB000050900BE050900B5050800AD050800A528
:101DC0000509009C050800940508008C050800849E
:101DD0000508007C050800740508006C050700650F
:101DE0000508005D050700560508004E0507004779
:101DF0000507004005080038050700310507002ADF
:101E0000050700230507001C050600160507000F3F
:101E10000507000805060002050700FB040600F59B
:101E2000040700EE040600E8040600E2040700DBF5
:101E3000040600D5040600CF040600C9040600C34A
:101E4000040600BD040600B7040600B1040500AC9A
:101E5000040600A6040600A00405009B04060095E5
:101E6000040500900406008A04050085040500802E
:101E70000406007A04050075040500700405006B73
:101E800004050066040500610405005C04050057B4
:101E9000040500520405004D0405004804050043F4
:101EA0000405003E0404003A040500350405003032
:101EB0000404002C04050027040400230405001E6C
:101EC0000404001A04040016040500110404000DA3
:101ED000040400090405000404040000040400FCD8
:101EE000030400F8030400F4030400F0030400EC0E
:101EF000030400E8030400E4030400E0030400DC3E
:101F0000030400D8030400D4030400D0030400CC6D
:101F1000030400C8030300C503030024F404D9200C
:101F20001BC40C5C0E9804C4095F0265077101F4C0
:101F300005F900FB04B30048048700C10369005899
:101F400003550003034500BE023A008402310053EA
:101F5000022A002902250004022000E4011C00C816
:101F6000011900AF011700980114008401130071DA
:101F70000110006101100051010E0043010D0036F7
:101F8000010B002B010B0020010B00150109000CB7
:101F900001090003010800FB000800F3000800EB42
:101FA000000700E4000600DE000600D8000600D2AC
:101FB000000600CC000500C7000500C2000500BDFA
:101FC000000400B9000400B5000400B1000400AD35
:101FD000000400A9000400A5000300A20003009F64
:101FE0000004009B0003009800030095000200938A
:101FF000000300900003008D0002008B00030088A6
:102000000002008600020084000300810002007FBD
:102010000002007D0002007B0002007900020077D0
:1020200000010076000200740002007200010071DD
:102030000002006F0002006D0001006C0002006AE7
:1020400000010069000200670001006600010065F0
:1020500000010064000200620001006100010060F4
:102060000001005F0002005D0001005C0001005BF8
:102070000001005A000100590001005800010057FA
:1020800000010056000100550001005400010053FA
:1020900000000053000100520001005100010050F7
:1020A0000001004F0001004E0000004E0001004DF5
:1020B0000001004C0001004B0000004B0001004AF1
:1020C00000010049000100480000004800010047ED
:1020D00000010046000000460001004500000045E8
:1020E00000010044000100430000004300010042E1
:1020F00000000042000100410000004100010040DA
:102100000001003F0000003F0001003E0000003ED3
:102110000001003D0000003D0001003C0000003CCB
:102120000000003C0001003B0000003B0001003AC1
:102130000000003A000100390000003900010038B9
:1021400000000038000000380001003700000037B0
:1021500000010036000000360000003600010035A6
:10216000000000350000003500010034000000349C
:102170000000003400010033000000330000003391
:102180000001003200000032000000320001003186
:10219000000000310000003100010030000000307C
:1021A000000000300001002F0000002F0000002F71
:1021B0000000002F0001002E0000002E0000002E65
:1021C0000001002D0000002D0000002D0000002D5A
:1021D0000001002C0000002C0000002C0000002C4E
:1021E0000001002B0000002B0000002B0000002B42
:1021F0000001002A0000002A0000002A0000002A36
:102200000001002900000029000000290000002929
:10221000000000290001002800000028000000281C
:10222000000000280000002800010027000000270F
:102230000000002700000027000000270001002602
:1022400000000026000000260000002600000026F6
:1022500000010025000000250000002500000025E9
:1022600000000025000000250001002400000024DB
:1022700000000024000000240000002400010023CE
:1022800000000023000000230000002300000023C2
:1022900000000023000000230001002200000022B3
:1022A00000000022000000220000002200000022A6
:1022B0000001002100000021000000210000002199
:1022C000000000210000002100000021000100208A
:1022D000000000200000002000000020000000207E
:1022E0000000002000000020000000200001001F6E
:1022F0000000001F0000001F0000001F0000001F62
:102300000000001F0000001F0001001E0000001E52
:102310000000001E0000001E000000043700001E28
:10232000290000511B00005810000010090000CCCB
:10233000040000780200004101000020436F756E28
:102340007420583A004265640045310062656400BB
:102350002C2073797374656D2073746F707065646D
:1023600021204865617465725F49443A20004865E0
:102370006174696E67204661696C656400486561D7
:1023800074696E67206661696C65640054484552E3
:102390004D414C2052554E41574159005468657289
:1023A0006D616C2052756E61776179004572723A89
:1023B000204D415854454D50004D415854454D50C5
:1023C00020747269676765726564004572723A20AD
:1023D0004D494E54454D50004D494E54454D5020A9
:1023E000747269676765726564004D3834205820DF
:1023F00059205A204500202F002042403A0020401A
:102400003A005072696E7420506175736564007093
:10241000012C0190012701B0012201C0011D01F032
:102420000118011002130130020E0160020901902F
:10243000020401C002FF000003FA004003F500801F
:1024400003F000D003EB002004E6007004E100E09C
:1024500004DC004005D700C005D2004006CD00D006
:1024600006C8008007C3003008BE00F008B900C0ED
:1024700009B400B00AAF00B00BAA00D00CA5000050
:102480000EA000500F9B00C010960050129100004B
:10249000148C00C0158700B0178200B0197D00D0E1
:1024A0001B7800001E730040206E0090226900F02F
:1024B00024640040275F0090295A00E02B5500104B
:1024C0002E500020304B0010324600E03341009087
:1024D000353C001037370070383200A0392D00B07D
:1024E0003A2800A03B2300603C1E00103D190090DC
:1024F0003D1400103E0F00703E0A00C03E05000073
:102500003F0000403FFBFF803FF6FFC03FF1FF7CF4
:102510003C3E5E2B3D3F2F5B5D3B2C2A225C004303
:10252000616E6E6F74206F70656E20737562646982
:1025300072200053442063617264206F6B0A006F45
:1025400070656E526F6F74206661696C65640A0015
:10255000766F6C756D652E696E6974206661696C45
:1025600065640A00534420696E6974206661696C71
:102570000A004D3234004D32332025730046696C19
:10258000652073656C65637465640A002053697A1D
:10259000653A200046696C65206F70656E65643A27
:1025A0002000454E4420535542524F5554494E4504
:1025B0000A002220706F73002220706172656E74B1
:1025C0003A2200535542524F5554494E45204341FB
:1025D0004C4C207461726765743A22007472796998
:1025E0006E6720746F2063616C6C207375622D6759
:1025F000636F64652066696C657320776974682011
:10260000746F6F206D616E79206C6576656C732ECA
:10261000204D4158206C6576656C2069733A310A0B
:102620000057726974696E6720746F2066696C6503
:102630003A20002E0A006F70656E206661696C6535
:10264000642C2046696C653A2000667265736800E8
:10265000646F696E67002066696C653A20004E6F92
:1026600077200000002100240027002A000000221B
:1026700000250028002B0000002000230026002950
:10268000000202020202020202040404040404041E
:102690000403030303030303030101010101010117
:1026A00001010204081020408001020408102040AB
:1026B000800102040810204080804020100804029D
:1026C00001000000010200090A00000000040308E4
:1026D00007000000000000000000000000000000F3
:1026E0000002FFFFFFFFEFFFFFFFFFFFFFFFFFFF06
:1026F000FFEFEFFFFFFFFFFFFFFFFFFFE7DFFFFF42
:10270000FFFFFFFFFFFFFFE7DFFFFFFFFFFFFFFF11
:10271000FFFFE3DFFFFFFFFFFFFFFFFFFFF3CFFF41
:10272000FFFFFFFFFFFFFFE1E1CFFFFFFFFFFFFF25
:10273000FE78000003DDFFFFFFFFFEFF807E00014B
:10274000EEFFFFFFFFFE7DCFFC0000F77FFFFFFFE6
:10275000FF8E060000007BBFFFFFFFFFC0000000F0
:10276000007DDFFFFFFFFFFC01FE00003EE7FFFFF3
:10277000FFFFFFFFFC00031F73FFFFFFFFFFFFF8DA
:1027800000018F81FFFFFFFFFFFFE0000083F9FFE3
:10279000FFFFFFFFFF00FC0000F0FFFFFFFFFFE077
:1027A0000FFFC00000FFFFFFFFFE03FFFFC00000A0
:1027B000FFFFFFFFFFFFFFF9000000FFFFFFFFFF2C
:1027C000FFFFFC0007C0FFFFFFFFFFFFFFFF000749
:1027D000E0FFFFFFFFFFFFFFFFE007F1FFFFFFFF4D
:1027E000FFFFFFFFFC07F9FFFFFFFFFFFFFFFFFFFA
:1027F00003F9FFFFFFFFFFFFFFFFFF83F9FFFFFF6D
:10280000FFFFFFFFFFFFC3FFFFFFFFFFFFFFFFFF14
:10281000FFE1FFFFFFFFFFFFFFFFFFFFF0BFFFFF35
:10282000FFFFFFFFFFFFFBF83FFFFFFFFFFFFFFF83
:10283000FFF9F83FFFFFFFFFFFFFFFFF7EF0FFFF05
:10284000FFFFFFFFFFFFFF8E03FFFFFFFFFFFFFF05
:10285000FFFFE01FFFFFFFFFFFFFFFFFFFFFFFFF87
:10286000FFFFFFFFFFFFFFFFFFFFFFFFFFFFFFFF78
:10287000FFFFFFFFFF7FFFFFFFFF00007FFFFFF86D
:102880007FFFFFFFFF80007FFFFFE07FFFFFFFFF75
:10289000C3FCFFFFFFF8FFFFFFFFFFC3FCFFFFFFCD
:1028A000F8FFFFFFFFFF87FDFFFFFFF1FFFFFFFFC7
:1028B000FF87FFFFFFFFF1FFFFFFFFFF0FE7F30FB2
:1028C000FC23FC3FFFFFFF0FEF8007F003F01E002B
:1028D0007FFE1FCF8187C787C70C007FFE001FC701
:1028E000C78FC79F0F0CFFFE001F878F1F8F1F0F03
:1028F0001FFFFC3F9F8F8F1F8E001E3FFFFC7F3FFF
:102900000F1E3F1E3FFE3FFFF87FFF1F1C3F1C7F37
:10291000FC7FFFF8FFFF1E1C7E1C7FFC7FFFF0FF8B
:10292000CE3E3C7E3C7FB8FFFFF0FF9E3C387C38BB
:102930007E78FFFFE1FF3C7C787C783CF1FFFFE193
:10294000F8387878101801F1FFFF000060203C0093
:102950007C07807FFFFFFFFFFFFE1FFE1FFFFFFFC3
:10296000687474703A2F2F6D61726C696E66772E81
:102970006F726700322E302E352E330001FFFFFFBD
:10298000FFFFFFFFFFFFFFFFFFFF0FFFFFFFFFFF47
:10299000FFFFFFFFFFFFFFFF1E0000000000000021
:1029A00000000007FFFF38000000000000000000EA
:1029B0000003FFFF700000000000000000000001A5
:1029C000FFFF600000000000000000000000FFFFAB
:1029D0006000000000000000000000007FFFC00059
:1029E000000000000000007800003FFFC00FC0FCA6
:1029F00000000000007818001FFFC03FE1FF00004A
:102A0000000000783C000FFFC07FF3FF8000000053
:102A100000783C0007FFC0FFFFFFC0000000007807
:102A20003C0003FFC1F87F87E00000000078000051
:102A300001FFC1F03F03E00000000078000000FF4C
:102A4000C1E01E01E01F0003E0783C03F07FC1E01D
:102A50001E01E07FC00FF8783C07FC3FC1E01E017B
:102A6000E1FFE01FFC783C0FFE1FC1E01E01E3FF09
:102A7000F03FFE783C1FFE0FC1E01E01E3F3F83F7C
:102A80003E783C3F3F07C1E01E01E7E0FC7C1F7839
:102A90003C3E1F07C1E01E01E7C07C7C0F783C3C38
:102AA0000F03C1E01E01E7807C780F783C3C0F03E8
:102AB000C1E01E01E7803C7800783C3C0F03C1E098
:102AC0001E01E7803C7800783C3C0F03C1E01E010A
:102AD000E7803C7800783C3C0F03C1E01E01E7C072
:102AE0003C7800783C3C0F03C1E01E01E3E03C78F9
:102AF000007C3C3C0F03C1E01E01E3FF3FF8007F78
:102B0000BC3C0F03C1E01E01E1FF3FF8003FBFFCEA
:102B10000F03C1E01E01E0FF3FF8001FBFFC0F03E1
:102B2000C1E01E01E07F3FF8000FBFFC0F03600013
:102B3000000000000000000000000007600000002E
:102B4000000000000000000000067000000000000F
:102B5000000000000000000E38000000000000002F
:102B600000000000001C1E0000000000000000002B
:102B7000000000780FFFFFFFFFFFFFFFFFFFFFFFD9
:102B8000FFF001FFFFFFFFFFFFFFFFFFFFFFFF80E1
:102B90002020506C616E6E65724275666665724289
:102BA000797465733A20002046726565204D656D25
:102BB0006F72793A2000436F6D70696C65643A20DA
:102BC0004D617920323220323032300A00204C619F
:102BD000737420557064617465643A203230323009
:102BE0002D30332D3331207C20417574686F723A5B
:102BF00020287468697369736B65697468622C2036
:102C0000456E6465722D33290A00322E302E352E22
:102C1000330A004D61726C696E0020536F667477E1
:102C20006172652052657365740A00205761746390
:102C300068646F672052657365740A002042726F82
:102C4000776E206F75742052657365740A00204595
:102C5000787465726E616C2052657365740A0050F9
:102C60006F77657255700A0073746172740A00613F
:102C700075746F25632E67004732385859004D31FF
:102C8000303031006572726F722077726974696ECC
:102C90006720746F2066696C650A00446F6E65205A
:102CA000736176696E672066696C652E0A004D3225
:102CB0003900456E6473746F70730025532025636B
:102CC00020256320256320256300205A3A002059DF
:102CD0003A0020583A00656E6473746F7073206810
:102CE00069743A20004D6F76652025736D6D000084
:102CF0004D6F766520302E316D6D004D6F766520FD
:102D0000316D6D004D6F76652031306D6D004D6F0A
:102D10007665204178697300486F74656E6420742D
:102D20006F6F20636F6C64004578747275646572B0
:102D3000004D6F7665205A004D6F76652059004D25
:102D40006F76652058005072696E742066726F6DE0
:102D5000204D6564696100220A00556E6B6E6F77C5
:102D60006E20636F6D6D616E643A202200456E6463
:102D700065722D332052656164792E005072696E40
:102D800074696E672E2E2E00204500205A002059AF
:102D900000204D393220580020746F6F206C6F6E08
:102DA0006720657874727573696F6E2070726576CE
:102DB000656E7465640A0020636F6C6420657874C6
:102DC000727573696F6E2070726576656E74656476
:102DD0000A002E0A006F70656E206661696C65647A
:102DE0002C2046696C653A20002F2F616374696F4F
:102DF0006E3A0020453A00205A3A0020593A0058CD
:102E00003A00B6DBB6E211241FBECFEFD0E4DEBF3E
:102E1000CDBF12E0A0E0B1E0EAEBF1EE01E00BBFC4
:102E200002C007900D92A233B107D9F722E1A2E3C5
:102E3000B2E001C01D92AE3DB207E1F717E1C2E07A
:102E4000D7E104C02197FE010E9439F0C130D107BB
:102E5000C9F70E94B1DC0C94D0F00C9400000C94E3
:102E600071212CEA35EC47E25EE36091A703709193
:102E7000A8038091A9039091AA030E945CEE60933D
:102E8000430D7093440D8093450D9093460D089526
:102E90002CEA35EC47E25EE36091AB037091AC0342
:102EA0008091AD039091AE030E94BAE760933F0D0D
:102EB0007093400D8093410D9093420D0895FC0155
:102EC00084910895FC0180810895CF93DF93EC01F4
:102ED000CB01BA010E945BE72AE037ED43E25DE3F4
:102EE0000E945CEE20E030E0A9010E94D9ED0E9432
:102EF000D5EE688379838A839B83DF91CF91089590
:102F0000CF93DF93EC01CB01BA010E945BE720E095
:102F100030E048EC52E40E945CEE20E030E0A90191
:102F20000E94D9ED688379838A839B83DF91CF9157
:102F30000895CF93DF93EC01CB01BA010E945BE7C8
:102F400020E030E048EC52E40E945CEE20E030E00B
:102F5000A9010E94D9ED688379838A839B83DF91DD
:102F6000CF910895CF93DF93EC01CB01BA010E947A
:102F70005BE720E030E040E251E40E945CEE20E0BC
:102F800030E0A9010E94D9ED688379838A839B830D
:102F9000DF91CF910895CF93DF93EC01CB01BA017C
:102FA0000E945BE72AE037ED43E25DE30E945CEEBE
:102FB00020E030E0A9010E94D9ED688379838A83FB
:102FC0009B83DF91CF910895CF93DF93EC01CB01E9
:102FD000BA010E945BE720E030E0A9010E94D9ED30
:102FE000688379838A839B83DF91CF910895CF9300
:102FF000DF93EC01CB01BA010E945BE720E030E0F7
:10300000A9010E94D9ED688379838A839B83DF912C
:10301000CF910895CF93DF93EC01CB01BA010E94C9
:103020005BE720E030E04AE754E40E945CEE20E0F9
:1030300030E0A9010E94D9ED688379838A839B835C
:10304000DF91CF910895CF93DF93EC01CB01BA01CB
:103050000E945BE720E030E0A9010E94D9ED0E94C8
:10306000CEEE79836883DF91CF910895CF93DF937C
:10307000EC01CB01BA010E945BE729EC38EC48EC8B
:103080005EE30E945CEE20E030E040E05FE30E94FF
:10309000D9ED0E94D5EE6883DF91CF9108958F928C
:1030A0009F92AF92BF92CF92DF92EF92FF92CF9317
:1030B0006B017C0120E030E0A9010E9454E787FD0C
:1030C00099C067E177EB81E598E3A70196010E943B
:1030D000D9ED6B017C0120E030E04AE754E40E9426
:1030E000BAE74B015C0120E030E0A901C701B6015D
:1030F0000E9454E720E030E040EA50E487FF04C03B
:1031000020E030E040EA50ECC501B4010E94D9ED66
:1031100020E030E040E251E40E945CEE0E94CEEEFE
:103120006B017C018BE2F7FE09C0F094E094D0942F
:10313000C094C11CD11CE11CF11C8DE2809341079D
:10314000C701B60120E137E240E050E00E941AF0EA
:103150008AE0882E912CA12CB12CCA01B901A501BD
:1031600094010E941AF0605D60934207C701B601A6
:1031700028EE33E040E050E00E941AF0CA01B901A5
:10318000A50194010E941AF0605D60934307C70196
:10319000B60124E630E040E050E00E941AF0CA0197
:1031A000B901A50194010E941AF0605D6093440783
:1031B0008EE280934507C701B601A50194010E94E4
:1031C0001AF0C62FCA01B901A50194010E941AF094
:1031D000605D60934607C05DC093470781E497E058
:1031E000CF91FF90EF90DF90CF90BF90AF909F90E6
:1031F0008F90089567E177EB81E598EB66CF0E94A9
:103200005BE720E030E048EC52E40E945CEE20E016
:1032100030E0A9010E94D9ED0C944F188F929F9233
:10322000AF92BF92CF92DF92EF92FF92CF936B015A
:103230007C0120E030E0A9010E9454E787FDA4C092
:1032400067E177EB81E598E3A70196010E94D9ED4C
:103250006B017C0120E030E0A9010E9454E787FF68
:1032600098C0C701B601905820E030E048EC52E425
:103270000E94BAE720E030E040EA50E40E94D9ED35
:1032800020E030E040E251E40E945CEE0E94CEEE8D
:103290006B017C0180E28093410760E280E1C81607
:1032A00087E2D806E104F1048CF0C701B60120E101
:1032B00037E240E050E00E941AF0CA01B9012AE06A
:1032C00030E040E050E00E941AF0605D60934207F9
:1032D00060E288EEC81683E0D806E104F1048CF0C1
:1032E000C701B60128EE33E040E050E00E941AF03A
:1032F000CA01B9012AE030E040E050E00E941AF033
:10330000605D6093430760E284E6C816D104E1047F
:10331000F1048CF0C701B60124E630E040E050E053
:103320000E941AF0CA01B9012AE030E040E050E002
:103330000E941AF0605D609344078AE0882E912C09
:10334000A12CB12CC701B601A50194010E941AF06D
:10335000C62FCA01B901A50194010E941AF0605D4F
:10336000609345078EE280934607C05DC093470790
:1033700081E497E0CF91FF90EF90DF90CF90BF90E6
:10338000AF909F908F90089567E177EB81E598EB80
:103390005BCF20E030E048EC52E4C701B60168CFD3
:1033A0000E945BE720E030E040E251E40E945CEEE6
:1033B00020E030E0A9010E94D9ED0C940E1911987B
:1033C0000000000087FD52C0419800000000119AE3
:1033D0000000000011980000000086FD53C04198D5
:1033E00000000000119A0000000011980000000089
:1033F00085FD46C0419800000000119A00000000C1
:1034000011980000000084FD39C0419800000000C0
:10341000119A0000000011980000000083FD2CC0EC
:10342000419800000000119A00000000119800006F
:10343000000082FD1FC0419800000000119A0000AA
:10344000000011980000000081FD12C041980000AA
:103450000000119A0000000011980000000041983F
:1034600000000000119A000000000895419AADCFBD
:10347000419AEDCF419AE0CF419AD3CF419AC6CF3E
:10348000419AB9CF419AACCF089590E080E0089579
:10349000CF93DF93FB01D90190819130E9F0943013
:1034A000A8F0945090832D913C911197B9016F5FD2
:1034B0007F4F11967C936E93420F531FEA018883CE
:1034C0008D919C918F35910564F406C08C3539F44B
:1034D0009C5F9083943039F7DF91CF9108958B33BF
:1034E00011F781E08083F8CF90918C05E92FF0E00F
:1034F000EB5DF14F80839F5F943040F490938C0597
:10350000809110078F5F80931007089510928C05AB
:10351000F7CF282F9091C902833021F495FD0FC079
:1035200094FD0FC0892F90E0B0E0A0E004C0B695F4
:10353000A795979587952A95D2F78170089581E090
:10354000089580E0089580E090E0A0E8B0E48093E2
:103550004F0D9093500DA093510DB093520D8DEFE0
:1035600091E00E94DC798091B003823009F440C080
:10357000E4F4882319F1813071F18CE691E00E9426
:10358000DC7910924F0D1092500D1092510D109247
:10359000520D8DEF91E00E94DC798091B0038F5F36
:1035A0008530C4F58093B0030895833071F1843081
:1035B00021F780E090E0AAEEB2E404C080E090E061
:1035C000A0EFB1E48093470D9093480DA093490D6F
:1035D000B0934A0D11C080E090E0ADE4B3E4809375
:1035E000470D9093480DA093490DB0934A0DC5CF58
:1035F00080E090E0ADE4B3E480934B0D90934C0DEC
:10360000A0934D0DB0934E0DB8CF80E090E0A0EFA9
:10361000B1E4E5CF1092B00308950E945BE720E08B
:1036200030E0A9010E94D9ED0E94CEEECB010C94AE
:10363000DA84CF92DF92EF92FF926B017C0120E05F
:1036400030E0A9010E9454E787FD26C067E177EBCF
:1036500081E598E3A70196010E94D9ED6B017C01F9
:1036600020E030E0A9010E9454E720E030E040E093
:103670005FE387FF04C020E030E040E05FEBC7017C
:10368000B6010E94D9ED0E94CEEECB01FF90EF90E3
:10369000DF90CF900C94DA8467E177EB81E598EBCB
:1036A000D9CF0E945BE720E030E0A9010E94D9ED6C
:1036B0000C94191B0C94F2780C94F2780C94F27818
:1036C0000C94F2780C94F76B0C94F76B0C94F76BEA
:1036D0000C94F76BCF92DF92EF92FF92CF93DF9330
:1036E00000D000D0CDB7DEB70E945BE720E030E02D
:1036F00048EC52E40E945CEE20E030E0A9010E9418
:10370000D9ED6B017C0120E030E0A9010E9454E773
:1037100027E137EB41E558E387FF04C027E137EBAA
:1037200041E558EBC701B6010E94D9ED69837A8360
:103730008B839C83CE0101960E94A6830F900F90ED
:103740000F900F90DF91CF91FF90EF90DF90CF908F
:1037500008950E945BE729EC38EC48EC5EE30E9498
:103760005CEE20E030E040E05FE30E94D9ED0E9493
:10377000D5EE862F0C94748CCF93DF9300D000D0BD
:10378000CDB7DEB70E94D5EE0E9459E769837A83F0
:103790008B839C83CE0101960E9420830F900F9013
:1037A0000F900F90DF91CF9108950E945BE72AE080
:1037B00037ED43E25DE30E945CEE20E030E0A901DA
:1037C0000E94D9ED0C94BC1BCF92DF92EF92FF9236
:1037D000CF93DF9300D000D0CDB7DEB76B017C0173
:1037E00020E030E0A9010E9454E787FD1BC067E19B
:1037F00077EB81E598E3A70196010E94D9ED6983F3
:103800007A838B839C83CE0101960E9420830F9044
:103810000F900F900F90DF91CF91FF90EF90DF907E
:10382000CF90089567E177EB81E598EBE4CF0E94B4
:103830005BE72AE037ED43E25DE30E945CEE20E0C7
:1038400030E0A9010E94D9ED0C94E41B0E945BE7D3
:1038500020E030E0A9010E94D9ED0C94E41BCF9246
:10386000DF92EF92FF92CF93DF9300D000D0CDB7DD
:10387000DEB76B017C0120E030E0A9010E9454E733
:1038800087FD1BC067E177EB81E598E3A70196010F
:103890000E94D9ED69837A838B839C83CE01019644
:1038A0000E94DCBC0F900F900F900F90DF91CF9192
:1038B000FF90EF90DF90CF90089567E177EB81E57F
:1038C00098EBE4CF0E945BE720E030E04AE754E465
:1038D0000E945CEE20E030E0A9010E94D9ED0C943A
:1038E0002F1CAF92BF92CF92DF92EF92FF920F9375
:1038F0001F93CF93DF936B01E9014A3009F4B8C0FD
:10390000453109F06AC0DB011296ED91FC91F2801D
:10391000C681D781139A88E28A950000E9F7BF2C07
:10392000B29420EFB22230E1A32EAF0C48E2E42E95
:1039300088EF0E94DF198E2D8A950000E9F7BFE11C
:10394000BF1508F481C08F2D807780680E94DF1931
:103950008B2D0E94DF198E2D8A950000E9F780E8F3
:103960000E94DF1980E00E94DF198E2D8A950000E9
:10397000E9F78AEF0E94DF198E2D8A950000E9F79A
:103980008E01005F1F4F8881807F0E94DF1989911F
:103990008295807F0E94DF19C017D107A1F78E2D75
:1039A0008A950000E9F7F394E0E1BE0EFA10C0CF6B
:1039B0001398D6011296CD91DC91CE010E94D6C308
:1039C0008111EEC1DF91CF911F910F91FF90EF9088
:1039D000DF90CF90BF90AF900895FB0102811381DB
:1039E000423309F498C108F49CC1463409F489C1F2
:1039F000473409F48CC14B3329F589812B81D801D7
:103A000012966C91129713964C91213009F4DFC1F4
:103A1000233009F0A9C138EF380F582F91E0431730
:103A200008F490E041E0531708F040E031E0561709
:103A300008F430E0592F542B352309F0BDC19423ED
:103A400009F0BAC181E0BECF80EE8F0D8068807F23
:103A50000E94DF198F2D8295807F0E94DF198E2DA5
:103A60008A950000E9F780E80E94DF1980E87BCFA3
:103A70000B9A1398399A4198099A119A139A88E2E5
:103A80008A950000E9F788E790E0CEE9DFE0FE01E3
:103A90003197F1F70197D9F788EF0E94DF1918E203
:103AA000812F8A950000E9F780E20E94DF1980E00B
:103AB0000E94DF19812F8A950000E9F780E00E94BB
:103AC000DF1980E80E94DF19812F8A950000E9F74D
:103AD00080E00E94DF1980E10E94DF19812F8A9522
:103AE0000000E9F7CE010197F1F7CE010197F1F758
:103AF000CE010197F1F7CE010197F1F7CE010197C1
:103B0000F1F7CE010197F1F7CE010197F1F7CE0160
:103B10000197F1F7CE010197F1F7CE010197F1F787
:103B2000CE010197F1F7CE010197F1F7CE01019790
:103B3000F1F7CE010197F1F72197F1F780E20E94AA
:103B4000DF1980E40E94DF19812F8A950000E9F7D0
:103B500080E20E94DF1980E60E94DF191A950000BA
:103B6000E9F710E0D0E0C8E28D2F807780680E94EE
:103B7000DF19812F0E94DF198C2F8A950000E9F749
:103B800080E80E94DF1980E00E94DF198C2F8A955F
:103B90000000E9F78AEF0E94DF198C2F8A95000058
:103BA000E9F780E211980000000041980000000051
:103BB000119A0000000011980000000041980000D8
:103BC0000000119A000000001198000000004198C8
:103BD00000000000119A0000000011980000000091
:103BE000419800000000119A0000000011980000A8
:103BF0000000419800000000119A00000000119898
:103C000000000000419800000000119A0000000030
:103C1000119800000000419800000000119A000077
:103C20000000119800000000419800000000119A67
:103C30000000000011980000000041980000000002
:103C4000119A000000001198000000004198000047
:103C50000000119A00000000119800000000419837
:103C600000000000119A0000000011980000000000
:103C7000419800000000119A000000001198000017
:103C80000000419800000000119A00000000119807
:103C900000000000419800000000119A00000000A0
:103CA000119800000000419800000000119A0000E7
:103CB0000000119800000000419800000000119AD7
:103CC000000000009C2F9A950000E9F7815009F050
:103CD00069CF88EF0E94DF198C2F8A950000E9F7E1
:103CE000DF5F105FD03209F03FCF80E00E94DF1924
:103CF00080EC0E94DF19CA950000E9F7139881E073
:103D000061CED80115968C91888381E05BCEF80155
:103D100081818883FACFB901C8010E94C0C381E0C4
:103D200051CE443171F0473109F08CCE1882F80140
:103D300082818983858181508A8383818B8381E01D
:103D400041CED80115964C91159750E0440F551F60
:103D500070E060E016968D919C910E9468F0C80119
:103D60000E94ECC381E02ECE481708F46BCE861774
:103D700008F468CEFA80E12CD12C243070F41DC0F8
:103D8000BE01C8010E94C0C3898198819D0D98839E
:103D90008E0D8983FF0C09F455CEF7FEF6CFF0CFD8
:103DA0004D8150E0440F551F70E060E08E819F818F
:103DB0000E9468F081E006CEFA8030E0F901E8590F
:103DC000FE4FD0802C593E4FF901E080E6CF58E0FD
:103DD000580F382F23CEDF92EF92FF920F931F934D
:103DE000CF93DF93EC01D62E1CAD0BAD7C0184E0AC
:103DF000E80EF11CE98DFA8DC7010995412F480F96
:103E00002D2D602FC7010E9458C79BAD890F8BAF26
:103E100081E090E0DF91CF911F910F91FF90EF90A3
:103E2000DF9008958F929F92AF92BF92CF92DF92D0
:103E3000EF92FF920F931F93CF93DF93EC018B01CF
:103E40007A018A859B858617970731F08881998149
:103E50000E9432C61B870A8788859985019641F59D
:103E60000C81DA808E81D80EA880B980D501559654
:103E7000ED91FC91C5010995080F10E0F701219122
:103E80007F0121114FC08E819F81810F911D9F83E2
:103E90008E8390E080E0DF91CF911F910F91FF9092
:103EA000EF90DF90CF90BF90AF909F908F9008954C
:103EB000CE80DF80F701008110E0002321F1A8808F
:103EC000B980602FC5010E948AC6D50151961C9108
:103ED00011954701BFEF8B1A9B0AF40181914F01A5
:103EE000882351F0D50150969C91190F082F682F07
:103EF000C5010E948AC6F1CF003281F0F5018389A5
:103F00009189890F180FC10ED11C288539852C1570
:103F10003D0508F0A5CF81E090E0BDCFD5015096DA
:103F20008C91F0CF402F6D2DC5010E9458C7D80E3F
:103F3000180FA4CFEF92FF920F931F93CF93DF93AD
:103F4000CDB7DEB72C970FB6F894DEBF0FBECDBF4E
:103F50001091220E0091230E2091B30321111BC05A
:103F600049E15BE0602F812F0E94C4C790E080E0B0
:103F7000180F1093220E0093230E99272C960FB63C
:103F8000F894DEBF0FBECDBFDF91CF911F910F918F
:103F9000FF90EF900895E090EF0DF090F00D2BEE74
:103FA0003DE03A832983212F30E03C832B83202F6F
:103FB00030E03E832D8318861F827A8769871C86AE
:103FC0001B869E012F5F3F4F4FE557E1BC01C701A4
:103FD0000E9444ACB7018BEE9DE00E9432C68F81F7
:103FE0009885C6CF8091B4029091B502009731F0C8
:103FF0004AE050E070E060E00C947AE560E070E048
:10400000CB0108958091B4029091B502009731F0F0
:104010004AE050E070E060E00C944CE460E070E056
:10402000CB010895CF93DF93CDB7DEB720E24F8168
:1040300058856E818D810E9445BCDF91CF91089596
:1040400063E972E084E690E00E9407916AEB72E017
:1040500084E690E00C94079181110C94202068EB89
:1040600071E084E190E00C940791CF930E94907DE1
:104070000E94767EC82F882319F080E00E942AA231
:104080008C2FCF910C942C200E94C5A90C942C202D
:104090000E94767E0C942C20282F10922C07809161
:1040A000300790913107A0913207B0913307B7FFE5
:1040B00008C0109230071092310710923207109208
:1040C00033078091B703882331F0809130078093C4
:1040D00024071092400780911F071816FCF4082E41
:1040E000000C990B821B910920912407022E000CD1
:1040F000330B2817390794F097FF02C090E080E057
:1041000080932407092E000CAA0BBB0B8093300769
:1041100090933107A0933207B0933307809124071F
:104120006623A9F090912507891714F48093250739
:1041300020912507022E000C330B2C5F3F4F482F98
:10414000082E000C550B241735071CF4845080935F
:10415000250708958091B70D9091B80D891B8F7038
:1041600051F480919F07813031F08091420F82FBA2
:10417000882780F9089581E008958F929F92AF92E9
:10418000BF92EF92FF920F931F93CF93DF93EC01B7
:104190008B01E42EF22E8091E50D9091E60D8C17A7
:1041A0009D0709F43EC02091B40327FD1092B4038B
:1041B0002CE9C039D20709F03FC08F50954871F4FF
:1041C0000E9441C26E517B4F8F4F9F4F6093A3035C
:1041D0007093A4038093A5039093A603D093E60D58
:1041E000C093E50D30E020E00093300710933107D5
:1041F0002093320730933307E0922507F0921F0790
:10420000CF50D54821F41092B6031092A20382E059
:104210008093520181E0809340071092B80310927E
:10422000AF03DF91CF911F910F91FF90EF90BF905F
:10423000AF909F908F90089525E8CF30D20771F608
:1042400080599C4919F0CFE0D5E8C8CF0E9441C2FF
:104250008090A3039090A403A090A503B090A60320
:10426000681979098A099B0997FFEDCFC0917F05ED
:104270000E94AA20882339F3C770C73021F7C3EA08
:10428000DDE5ACCFE091A203E63010F581E08E0FC2
:104290008093A2034091300750913107609132071B
:1042A000709133079091250780911F0728E0E29FC6
:1042B000F0011124EE58FC4F2091E50D3091E60DF0
:1042C00031832083428353836483758396838783FA
:1042D000089520E040E070E060E08FE095E80C9405
:1042E000BD20E091A203EE2389F0E150E093A20308
:1042F00088E0E89FF0011124EE58FC4F6281738141
:1043000027814681808191810C94BD200C94692184
:104310006F927F928F929F92AF92BF92CF92DF92D5
:10432000EF92FF920F931F93CF93DF9361E081E0B1
:104330000E944C20C09125071C2F85E0782E7C0E12
:1043400004E00C1B83E0F82EFC1A82E0E82EEC1A45
:104350009FE7A92E9CE0B92E2FECC22E2CE0D22E86
:1043600081E0982E9C1A6C2E619485E0882E8C1A20
:10437000C11130C080912407882389F080915201B7
:10438000882309F445C081E090912407911180E0D1
:1043900024E040EE5CE0662D0E9445BC39C080916F
:1043A0001E0710921E07882349F30E9471218091F5
:1043B0004007882319F3DF91CF911F910F91FF9050
:1043C000EF90DF90CF90BF90AF909F908F907F90B5
:1043D0006F900895C13009F077C080912407813033
:1043E00009F45FC080915201882391F01F92DF92FF
:1043F000CF929F9281E090912407913009F080E064
:104400008F930E9412200F900F900F900F900F909B
:104410000E94AA208111D0C0D6E0C53009F0CDC0DD
:1044200080912407853009F4A9C08091520181113F
:10443000B6C0D6E081E08D0F8C1315C080912407A3
:104440008C1709F4E1C080915201882361F06C2F30
:10445000611B81E0909124079C1380E023E046E9F2
:104460005CE00E9445BC82E08D0F8C1313C09091DC
:1044700024079C1709F4D9C080915201882351F078
:104480006C2F611B81E09C1380E023E044E85CE03A
:104490000E9445BCCF5FC7116BCFDD5FD0931F0774
:1044A0008ACF80911E0710921E07882309F49ACFA5
:1044B000B0928E05A0928D050E94692180914007DF
:1044C000882309F48FCF77CFC23009F0CBC0809119
:1044D0002407823081F080915201882309F498CF1B
:1044E00081E090912407923009F080E023E046ECCF
:1044F0005CE06E2D51CF80911E0710921E0788231D
:1045000051F38AE999E20E947C95809140078823C3
:1045100011F351CF80912407833081F080915201B3
:10452000882309F475CF81E090912407933009F036
:1045300080E023E049EB5CE06F2D2ECF80911E07D9
:1045400010921E07882351F38CE69BE20E947C9513
:1045500080914007882311F32ECF80911E0710927F
:104560001E07882309F489C08CEA9EE20E947C958C
:1045700080914007882309F480C01DCF80911E07D9
:1045800010921E07882309F450CF8FE59FE20E9406
:104590007C9580914007882309F447CF0CCF81E0B8
:1045A00090912407953009F080E023E04BEA5CE02D
:1045B000682D0E9445BC3DCFD5E0DC133BCF8091F8
:1045C00024078D1791F080915201882309F432CF8E
:1045D0006C2F611B81E0909124079C1380E023E005
:1045E0004FE95CE00E9445BC25CF80911E071092E8
:1045F0001E07882341F380E990E30E947C95809117
:104600004007882301F3D7CE80911E0710921E0722
:10461000882309F418CF80EE93E30E947C95809163
:104620004007882309F40FCFC6CE80911E07109251
:104630001E07882309F420CF20E040E070E060E00E
:1046400084E795E2DF91CF911F910F91FF90EF905A
:10465000DF90CF90BF90AF909F908F907F906F90A2
:104660000C94BD20C33009F455CFC43009F0D0CE2E
:1046700080912407843009F470CF809152018823FF
:1046800009F4C6CE81E090912407943009F080E0CF
:1046900023E044EB5CE0602F7FCEAF92BF92CF92DD
:1046A000DF92EF92FF920F931F93CF93DF93EC0172
:1046B0005B018A01FB01099587FD16C0C82ED12C2C
:1046C000F12CE12C2196F801C082D182E282F382A2
:1046D000CE01DF91CF911F910F91FF90EF90DF906E
:1046E000CF90BF90AF900895982F907E903CA9F402
:1046F0008F7190E0B0E0A0E06C017D0126E0CC0C71
:10470000DD1CEE1CFF1C2A95D1F7CE010196F501A8
:1047100009958F73C82A2296D6CF982F907F903E06
:1047200011F58F7090E0B0E0A0E06C017D0186E0B3
:10473000CC0CDD1CEE1CFF1C8A95D1F7CE01019636
:10474000F50109958F73C82A96E0CC0CDD1CEE1C90
:10475000FF1C9A95D1F7CE010296F50109958F734A
:10476000C82A2396B0CF982F987F903F79F587700D
:1047700090E0B0E0A0E06C017D01F6E0CC0CDD1C27
:10478000EE1CFF1CFA95D1F7CE010196F5010995B3
:104790008F73C82AA6E0CC0CDD1CEE1CFF1CAA956A
:1047A000D1F7CE010296F50109958F73C82AB6E0BC
:1047B000CC0CDD1CEE1CFF1CBA95D1F7CE01039684
:1047C000F50109958F73C82A24967DCF982F9C7F79
:1047D000983FE1F5837090E0B0E0A0E06C017D01CE
:1047E00056E0CC0CDD1CEE1CFF1C5A95D1F7CE0117
:1047F0000196F50109958F73C82A66E0CC0CDD1C83
:10480000EE1CFF1C6A95D1F7CE010296F5010995C1
:104810008F73C82A76E0CC0CDD1CEE1CFF1C7A9549
:10482000D1F7CE010396F50109958F73C82AE6E00A
:10483000CC0CDD1CEE1CFF1CEA95D1F7CE010496D2
:10484000F50109958F73C82A25963DCF982F9E7F35
:104850009C3F09F049C0817090E0B0E0A0E06C019D
:104860007D0186E0CC0CDD1CEE1CFF1C8A95D1F787
:10487000CE010196F50109958F73C82A96E0CC0CFC
:10488000DD1CEE1CFF1C9A95D1F7CE010296F501B6
:1048900009958F73C82A26E0CC0CDD1CEE1CFF1C8A
:1048A0002A95D1F7CE010396F50109958F73C82A91
:1048B00036E0CC0CDD1CEE1CFF1C3A95D1F7CE0186
:1048C0000496F50109958F73C82A46E0CC0CDD1CCF
:1048D000EE1CFF1C4A95D1F7CE010596F50109950E
:1048E0008F73C82A2696EFCE982F907C903841F48B
:1048F000807C803869F42196CE01F5010995F8CFC6
:104900008E7F8D3F28F02196CE01F5010995F8CFD5
:10491000C12CD12C7601D7CE1F93CF93DF9300D03B
:1049200000D0CDB7DEB710E0AE014F5F5F4F6FE54F
:1049300077E10E944D2349815A816B817C81452B0F
:10494000462B472B11F01F5FEFCF812F0F900F9059
:104950000F900F90DF91CF911F9108953F924F924A
:104960005F926F927F928F929F92AF92BF92CF92FF
:10497000DF92EF92FF920F931F93CF93DF9300D0BC
:1049800000D0CDB7DEB748014090300750903107D6
:104990006090320770903307411451046104710430
:1049A00079F0E1E0141415040CF0E0E0E093AF03BB
:1049B000109230071092310710923207109233078D
:1049C0001091AF0330901E0710921E07311005C0E2
:1049D000E0915201EE2309F471C03C832B832A013C
:1049E0003B015C01C4010E948C24082F80E0C114AB
:1049F000D10419F0C6010E948C241A821982E11494
:104A0000F104B1F4402F50E0282F30E0CA01820FAA
:104A1000931F46976CF485E190E0841B950B821BF5
:104A2000930B97FD0196959587958A8381E08983FD
:104A300001E02FE537E1A401BE016F5F7F4FCE019A
:104A400002960E94AA94E114F10491F08A818823CD
:104A500021F01A8289818F5F898300E022E637E1A5
:104A6000A701BE016F5F7F4FCE0102960E94AA94FC
:104A7000C114D10459F000E02FE537E1A601BE01D1
:104A80006F5F7F4FCE0102960E94AA9441E04127BA
:104A9000B30181E00E94C8C5C5010E948C24412F4A
:104AA000B50194E1981B892F0E94C8C5332031F0CD
:104AB000F201111102C0EB81FC8109950F900F905A
:104AC0000F900F90DF91CF911F910F91FF90EF907A
:104AD000DF90CF90BF90AF909F908F907F906F901E
:104AE0005F904F903F900895CF92DF92EF92FF92A8
:104AF0000F931F9381E7C82E8CE0D82EF12CE12C68
:104B000004E81CE02FE237E145E350E263E77CE094
:104B10008AE79CE00E94AE241F910F91FF90EF90D6
:104B2000DF90CF9008951F93CF93DF9300D000D0F4
:104B3000CDB7DEB710E0AE014F5F5F4F62E677E1C1
:104B40000E944D2349815A816B817C81452B462BE4
:104B5000472B11F01F5FEFCF812F0F900F900F9019
:104B60000F90DF91CF911F9108959CE0899F802D38
:104B7000112491E0980F909371032CE0280F20935B
:104B80004B0730E02E5F3F4F40911F0E4217130638
:104B900019F014F080E008952091210E9217D0F7BB
:104BA000662341F08E5F0E9477C580914B078E5F30
:104BB0000E9477C580914B0790911F0E891750F383
:104BC0002091210E90917103291720F31092220E4B
:104BD0008093230E81E0089520917003022E000C33
:104BE000330B8217130641F0809370036EEE7CE066
:104BF0008BEE9DE00C9432C60895CF93DF93FC01B9
:104C000025AD211104C021E025AF0E94F7C3C0915A
:104C1000ED0DD091EE0DE0911C0EF0911D0E82E095
:104C20000995E0911C0EF0911D0E81E0099530E090
:104C300020E044E1BE018BEE9DE00E94F3C32EE133
:104C40003EE047E1BE018BEE9DE00E94F3C3E091A0
:104C50001C0EF0911D0E80E0DF91CF910994EF9230
:104C6000FF920F931F93CF93DF93CDB7DEB72C97AF
:104C70000FB6F894DEBF0FBECDBF6F3F7105810543
:104C8000910509F0C0F487EE9DE00E94EB1EE091D3
:104C9000EF0DF091F00D3196849190E02C960FB6C7
:104CA000F894DEBF0FBECDBFDF91CF911F910F9162
:104CB000FF90EF9008951091220E0091230E209105
:104CC000B30321110FC049E35BE0602F812F0E94E5
:104CD000C4C790E080E0180F1093220E0093230EBB
:104CE0009927DCCFE090EF0DF090F00D2BEE3DE03A
:104CF0003A832983212F30E03C832B83202F30E01F
:104D00003E832D8318861F822FEF3FEF3A87298736
:104D10001C861B869E012F5F3F4FAB01BC01C70164
:104D20000E9484ABB7018BEE9DE00E9432C68F815A
:104D30009885D1CFDF92EF92FF920F931F93CF937D
:104D4000DF9300D000D0CDB7DEB77C01062F142F43
:104D5000112309F447C0AE014F5F5F4F6FE577E164
:104D6000C7010E944D237C0169817A818B819C81DE
:104D70006115710581059105A9F1DD24DA94D10E43
:104D80006D3371058105910589F06E3771058105D7
:104D9000910561F06A3271058105910599F565E427
:104DA00070E080E090E00E942F261D2D602F70E0C3
:104DB00089819A81AB81BC81CD97A105B105F9F4B8
:104DC00080E390E0680F791F072E000C880B990B89
:104DD0000E942F26115031F0612F70E0C7010E9410
:104DE0009A1F181B812F0F900F900F900F90DF913B
:104DF000CF911F910F91FF90EF90DF90089581E385
:104E000090E0E0CF0E942F261D2DA2CF6FEF7FEF05
:104E10000C949A1FEF92FF920F931F93CF93DF93FF
:104E2000CDB7DEB72C970FB6F894DEBF0FBECDBF5F
:104E30001091220E0091230E2091B30321111BC06B
:104E400049EF5AE0602F812F0E94C4C790E080E0B4
:104E5000180F1093220E0093230E99272C960FB64D
:104E6000F894DEBF0FBECDBFDF91CF911F910F91A0
:104E7000FF90EF900895E090EF0DF090F00D2BEE85
:104E80003DE03A832983212F30E03C832B83202F80
:104E900030E03E832D8318861F827A8769871C86BF
:104EA0001B869E012F5F3F4F42E657E1BC01C701C1
:104EB0000E9444ACB7018BEE9DE00E9432C68F8108
:104EC0009885C6CFEF92FF920F931F93CF937B01EC
:104ED000C42F890141FB662760F90E94B52588230C
:104EE000C9F1C0FF1BC001151105C1F4C7010E9423
:104EF0008C2425E130E0A901481B5109CA0157FD66
:104F0000019695958795C82FC150C7FD07C060E2EF
:104F100070E080E090E00E942F26F6CF45E160919E
:104F20004C07C7010E949A26C82FCC0FC80FCC0F80
:104F30000115110531F06C2F70E0C8010E940A279D
:104F4000C81BC73038F060E270E080E090E00E945B
:104F50002F26F6CFCF911F910F91FF90EF900895DC
:104F6000CF93DF9380915201882351F06091BA036F
:104F70007091BB0330E020E041E081E00E946227B5
:104F80008091B50381111CC0C091E50DD091E60D53
:104F900020E040E070E060E080EB97E20E94BD20FE
:104FA00081E08093B5030E94456C1092B50320E028
:104FB00040E070E060E0CE01DF91CF910C94BD2025
:104FC000DF91CF9108956FEF7FEF0C940A27AF9296
:104FD000BF92CF92DF92EF92FF920F931F93CF93E6
:104FE000DF935C016B010E948C24E82EC6010E94B5
:104FF0009325F12C03E110E0081B1109C5E20E1501
:105000001F050CF4CFE18C2F90E09C012E5F3F4FE9
:1050100040911F0E4217130609F0ACF50997209135
:10502000210E281719067CF160914C071092220E70
:10503000C093230E45E1C5010E949A26D1E0C11418
:10504000D104B1F06AE370E080E090E00E942F2686
:105050000E151F05D4F4C45F80911F0EC81740F0D1
:105060002091210E4C2F4950550B241715067CF426
:10507000DF91CF911F910F91FF90EF90DF90CF9034
:10508000BF90AF900895D0E0DACFDD2389F3802F71
:10509000880F080F000F0093220EC093230E60E2CA
:1050A00070E080E090E00E942F26C601DF91CF9152
:1050B0001F910F91FF90EF90DF90CF90BF90AF9036
:1050C0000C94E3270F931F93CF93DF93FC01EB0125
:1050D0008091300790913107A0913207B09133074A
:1050E000B7FF08C0109230071092310710923207B4
:1050F000109233078091340790913507A0913607BD
:10510000B0913707409130075091310760913207D5
:105110007091330784179507A607B70744F4809367
:10512000300790933107A0933207B09333078091F3
:1051300052018823E1F0609130077091310780912E
:105140003207909133070091380710913907209169
:105150003A0730913B07600F711F821F931F09951B
:10516000BC0180913E0790913F070E94E727809104
:105170001E07811108C080912D078823D1F18091ED
:1051800052018823B1F180913C0790913D0700972F
:10519000B1F0409130075091310760913207709122
:1051A0003307009138071091390720913A07309161
:1051B0003B07400F511F621F731FFE010995E091CD
:1051C0002E07F0912F07309741F080912D07811124
:1051D00003C080911E078111099580911E071092CE
:1051E0001E07882331F0DF91CF911F910F910C940E
:1051F0007121DF91CF911F910F9108956AE078E1BD
:1052000082E69CE10C9462286BEC77E187E19CE1FB
:105210000C94622867EF77E186E29CE10C946228A7
:1052200069E977E18FEF98E10C94622860E877E113
:105230008AE69BE10C94622865E677E185ED9BE1C7
:105240000C94622862EB77E180ED99E10C9462287E
:1052500064EE77E181E59BE10C94622863E278E1FA
:105260008DE09BE10C94622866E378E189EA9BE19A
:105270000C946228CF92DF92EF92FF920F93CF931C
:10528000DF93982F862F6A017901692F0E94B52537
:10529000882309F447C0C701002301F10E948C2430
:1052A000C82F43E1481B60914C07C6010E949A2613
:1052B000CC23C1F1D82FDD0FD80FDD0F6AE370E0EA
:1052C00080E090E00E942F26D73058F060E270E036
:1052D00080E090E00E942F26D81BF6CF0E949325F5
:1052E000DFCF80914B079C2F990F990FC91BCC0FD3
:1052F000C058C093220E8093230EC701002349F0AB
:10530000DF91CF910F91FF90EF90DF90CF900C94B1
:105310000627DF91CF910F91FF90EF90DF90CF9014
:105320000C94E327DF91CF910F91FF90EF90DF90E6
:10533000CF9008957F928F929F92AF92BF92CF921B
:10534000DF92EF92FF920F931F93CF93DF9361E071
:1053500081E00E944C20C091250765E0862E8C0ECE
:10536000D6E0DC1B85E0D82EDC1A84E0C82ECC1AEF
:1053700083E0B82EBC1A82E0A82EAC1A81E0982EE9
:105380009C1A7C2E7194C11134C08091240788230B
:10539000B1F080915201882359F081E09091240767
:1053A000911180E024E04FE55CE0672D0E9445BC50
:1053B000CF5FC811E8CF87E080931F070CC08091B2
:1053C0001E0710921E07882321F30E9471218091ED
:1053D00040078823F1F2DF91CF911F910F91FF9049
:1053E000EF90DF90CF90BF90AF909F908F907F9085
:1053F0000895C130E9F5809124078130E9F080916A
:1054000052018823A9F211E080912407813009F02C
:1054100010E06091A50C7091A60C8091A70C909162
:10542000A80C0E94191B00E09C014EEE5BE0692D68
:10543000812F0E943A29BCCF80911E0710921E072F
:105440008823E9F20E943DC0E12C10ECF12E09E71F
:1054500014E420E030E040E85FE365EA7CE08EEEB3
:105460009BE00E94D6BE80914007882341F2B3CFD3
:10547000C23009F006C1809124078230D9F08091B2
:105480005201882309F494CF11E0809124078230DF
:1054900009F010E06091A90C7091AA0C8091AB0CFE
:1054A0009091AC0C0E94191B00E09C0147EE5BE060
:1054B0006A2DBECF80911E0710921E078823F9F235
:1054C0000E943DC0E12C10ECF12E09E714E420E02D
:1054D00030E040E85FE369EA7CE087EE9BE00E9411
:1054E000D6BE80914007882351F275CF8091240762
:1054F0008330D9F080915201882309F459CF11E00B
:1055000080912407833009F010E06091AD0C709118
:10551000AE0C8091AF0C9091B00C0E94191B00E072
:105520009C0140EE5BE06B2D83CF80911E071092B3
:105530001E078823F9F20E943DC0E12C10ECF12EE9
:1055400009E714E420E030E040E85FE36DEA7CE046
:1055500080EE9BE00E94D6BE80914007882351F2E6
:105560003ACF809124078430D9F08091520188236A
:1055700009F41ECF11E080912407843009F010E077
:105580006091B10C7091B20C8091B30C9091B40CFD
:105590000E94191B00E09C0149ED5BE06C2D48CF97
:1055A00080911E0710921E078823F9F20E943DC0C9
:1055B000E12C10ECF12E09E714E420E030E040E8A3
:1055C0005FE361EB7CE089ED9BE00E94D6BE8091B9
:1055D0004007882351F2FFCE809124078530D9F00F
:1055E00080915201882309F4E3CE11E080912407D1
:1055F000853009F010E06091C10C7091C20C80916F
:10560000C30C9091C40C0E94191B00E09C0144ED56
:105610005BE06D2D0DCF80911E0710921E07882331
:10562000F9F20E943DC0E12C10ECF12E09E714E4E0
:1056300020E030E0A90161EC7CE084ED9BE00E9479
:10564000D6BE80914007882359F2C5CE80911E07AF
:1056500010921E07882329F10E943DC0E12C10EC16
:10566000F12E09E714E420E030E0A90165EC7CE0CC
:105670008AEC9BE00E94D6BE80914007882389F087
:10568000AACEC33009F432CFC43009F46ACFC53092
:1056900009F4A2CFC63009F08BCE80912407863062
:1056A000A9F280915201882309F482CE11E0809101
:1056B0002407863009F010E06091C50C7091C60C8B
:1056C0008091C70C9091C80C0E94191B00E09C01AE
:1056D0004AEC5BE06D2FACCE2F923F924F925F92DF
:1056E0006F927F928F929F92AF92BF92CF92DF92F2
:1056F000EF92FF920F931F93CF93DF93CDB7DEB757
:1057000028970FB6F894DEBF0FBECDBF61E081E0F1
:105710000E944C20209125072F832E83822F8B5FA0
:105720008D8387E0282E922F221A86E0382E321A97
:1057300085E0482E421A24E0291B288783E0782E32
:10574000791A82E0682E691A592E51948F8181113D
:1057500015C080912407882309F46DC080915201FF
:10576000882309F45EC081E090912407911180E0C4
:1057700024E04FE55CE0652D0E9445BCC090850C9F
:10578000D090860CE090870CF090880C8091890C6A
:1057900090918A0CA0918B0CB0918C0C8C159D056E
:1057A000AE05BF0510F4D701C601C090810CD090A2
:1057B000820CE090830CF090840CBC01CD016C1540
:1057C0007D058E059F0510F4C701B6010E9459E7BB
:1057D0006B017C019F81913009F0BBC0809124074F
:1057E000813009F44FC0809152018823D1F011E03B
:1057F00080912407813009F010E06091B50C709120
:10580000B60C8091B70C9091B80C0E94E41B61E03B
:105810002E81621B00E09C0144E25CE0812F0E942B
:105820003A298F818F5F8F839D8189138FCF88E085
:1058300080931F070EC080911E0710921E078823B9
:1058400009F48CCF0E94712180914007882309F4CC
:1058500085CF28960FB6F894DEBF0FBECDBFDF917F
:10586000CF911F910F91FF90EF90DF90CF90BF905D
:10587000AF909F908F907F906F905F904F903F90F0
:105880002F90089580911E0710921E07882309F417
:10589000AACF0E943DC02AE037ED43E25DE3C70195
:1058A000B6010E94BAE720E030E0A9010E94D9EDDC
:1058B0004B015C0120E030E040E05FE40E9454E7EF
:1058C00087FD05C0812C912CA12C5FE4B52E2AE028
:1058D00037ED43E25DE36091B50C7091B60C8091B9
:1058E000B70C9091B80C0E94BAE720E030E0A90113
:1058F0000E94D9ED20E030E040E85FE30E94D8ED5F
:105900000E94D5EE69837A838B839C83C501B401A1
:105910000E94CEEE7B018C0121E0E21AF108010920
:105920001109912C812C44E0A42E49E2B42EC980A7
:10593000DA8021E030E040E050E065EB7CE084E29A
:105940009CE00E9471BD80914007882309F44BCFF1
:1059500080CF8F81823009F081C08091240782300E
:10596000D9F080915201882309F45BCF11E0809136
:105970002407823009F010E06091B90C7091BA0CE4
:105980008091BB0C9091BC0C0E94E41B00E09C0138
:105990004AE15CE0662D42CF80911E0710921E07FF
:1059A0008823F9F20E943DC060918D0C70918E0C9D
:1059B00080918F0C9091900C0E9459E720E030E08C
:1059C000A9010E94D9ED4B015C0120E030E040E0EC
:1059D0005FE40E9454E787FD05C0812C912CA12C27
:1059E0003FE4B32E20E030E0A9016091B90C709142
:1059F000BA0C8091BB0C9091BC0C0E94D9ED20E0B8
:105A000030E048EC52E40E94D8ED0E94D5EE698364
:105A10007A838B839C83C501B4010E94CEEE7B0107
:105A20008C0124E6E21AF10801091109912C812C5C
:105A30002AE0A22E29E2B22EC980DA8024E630E0E4
:105A400040E050E069EB7CE08AE19CE00E9471BD9F
:105A500080914007882309F484CFFBCE8F81833067
:105A600009F04CC1809124078330D9F08091520114
:105A7000882309F4D6CE11E080912407833009F001
:105A800010E06091BD0C7091BE0C8091BF0C9091A4
:105A9000C00C0E94E41B00E09C0141E15CE0672D2A
:105AA000BDCE80911E0710921E078823F9F20E9436
:105AB0003DC02AE037ED43E25DE3C701B6010E9435
:105AC000BAE720E030E0A9010E94D9ED4B015C016A
:105AD00020E030E040E05FE40E9454E787FD05C02D
